:0600000024C0FECFFDCF7D
:10000600FCCFF0C0FACFF9CFF8CFF7CFF6CFF5CFC8
:10001600F4CFF3CFF2CFF1CFF0CFEFCFEECFEDCFDE
:100026006400C80090012003F8FFFCFFFEFFFFFFFD
:1000360080F24860322404F000207E390C00A300D0
:1000460036000000F894EE27ECBBE5BF8DE0A2E099
:10005600ED938A95E9F780E8A0E6ED938A95E9F7AE
:10006600E2E4F0E085919591009761F0A591B59154
:1000760005901590BF01F00105900D920197E1F7EB
:10008600FB01F0CFE0E0E3BBE4BBE5BBEFEDEDBF8A
:10009600C0E894C0EEEFE7BBE0E0E8BBE8E7E1BB11
:1000A60057D1E0E4E9BFE5E0EEBDEBE5EBBDEEE8F8
:1000B600EABD81D1E0EFEA93A1E9CDD12E2EE1E9A7
:1000C6004AD149D1EA93A0E00BD1EAE944D143D120
:1000D600EA93A0E005D10895F894A895E1B5E86102
:1000E600E1BDEDE0E1BD78940895AA93222009F4DC
:1000F6003DC0E881A9E010D3EF56AE2FB9D0E0930A
:100106008900F0938A0060938B0070938C0055D21F
:100116003E2E37FE12C0EAE0E093900030941ED1E6
:10012600309711F01BD101C0E0E0E0938F001ED1A3
:10013600EAE0F0E014D3EF5F17C018D1E4E6F0E090
:1001460009D3309711F00AD101C0E0E0E0939000A6
:1001560005D1309711F002D101C0E0E0E0938F00A5
:1001660005D1EAE0F0E0FBD2E0938E0021960895F7
:100176002220E9F0EDD0939AE091AE00FCD0E8D0D1
:10018600949AE0918E00FCD0E0918F00E03029F047
:10019600DFD0959AE0918F00F3D0E0919000E030A7
:1001A60029F0D6D0969AE0919000EAD006C0E09168
:1001B600AD00E8BBE2B3E067E2BB089511E06ADF99
:1001C6008BDFEBE5EDBDE8E8ECBD7894A895103043
:1001D60009F4CEDF552021F0A42D87DF552410E049
:1001E600F5CFFFCFEA93EFB7EA93E1E05E2E442026
:1001F60011F44E2E01C04424E0E0EDBDECBDE991C2
:10020600EFBFE9911895AA931A93D5D0E03011F46F
:10021600E0E063C0E981E03061F0A5E512D110E0CD
:10022600A981ED91A983AE2F0CD11F5F1830C0F3C1
:1002360002C0ACEC06D1E1E050C0AA93B3D2AA81C9
:10024600A2D011F4E0E011C0AEEBFBD010E000E864
:100256000F930F5FF1D0AF91EC931F5F1930C0F38E
:10026600E0E8EA93A9E066D152D29FD22396089598
:10027600AA931A93A981E1DFE03011F487D02DC04B
:10028600E0918400E295EF70E695E3701E2FA98158
:100296007AD011F47BD021C0A4E4D3D0E12FA6E21A
:1002A600B0E079D07CD27DD0A981C7DFE03011F4EF
:1002B6006DD013C080D0E12FAEE2B0E06CD06BD22F
:1002C600A0918000B0918100EA23FB231BD2AED11E
:1002D600A0E0B0E080E89DE3D7D11881229608958A
:1002E600AA93AB8150D011F4E0E030C0E881E295EA
:1002F600E07FEE0FEF61E883AEE4A3D0A981A1D041
:10030600AA819FD0A8819DD0AB8197DFE03011F400
:10031600E0E01CC0A0918300EA81EA1751F4A091A5
:100326008200E981EA1729F4A0918400E881EA179E
:1003360011F0E0E00BC0AB8126D011F4E0E006C07E
:10034600A8E47FD0AFE0B0E02CD035D02496089555
:10035600E0E0E2BB0895EA93E0E00895A32DB0E063
:10036600A7FDBFEFEAE0F0E0F5D10895A32DB0E0D8
:10037600A7FDBFEF0895E8BB85E88A95F1F70895D4
:10038600ED55E081F8CF3FDFE0300895E0E0FCE393
:100396006CE176EC0895F0E0EE0FFF1FEA0FFB1F0D
:1003A6000895109639F080ED97E00197F1F7A8953A
:1003B6001197C9F70895EE27C098B89A80EC93E094
:1003C6000197F1F7B89885E28A95F1F7B09B089501
:1003D6008BEC8A95F1F7B09BE1E08CE093E0019716
:1003E600F1F70895B89A85E08A95F1F7B8988DE106
:1003F6008A95F1F78894B0990894E79585ED8A95E2
:10040600F1F70895E894B89A85E08A95F1F770FDBA
:10041600B89883E28A95F1F7B09903C070FF03C0DC
:10042600089570FF089588EC8A95F1F7B8988DE0E5
:100436008A95F1F76894089568E0D4DF6A95E9F73C
:1004460008957A2F68E0EE27DDDF26F477956A9522
:10045600D9F7E39508954F935F9311244427BB275B
:10046600012C1124A8DFEE2301F1AF93A881E9DF67
:10047600AF9151E0501598F4B5DFE7FD08C0B2DF43
:10048600E7FD06C03FD0892319F4152E01C0AADF67
:1004960039D0892370E009F071E0B4DF1EC0A2DF15
:1004A600E7FF0BC09FDFE7FF05C0E42F5F914F9189
:1004B60021960895689436D0EFCF94DFE7FF01C008
:1004C60003C0501531F0152EE8942CD077279ADF0B
:1004D60004C0689427D071E095DF5395513454F2E7
:1004E60081DFEE1FEE1FE1701896EC931897439587
:1004F6001120D9F259E0EC911996EC9318975A9578
:10050600D1F7AECFE52FEA956E2FE695E695E695FF
:10051600EA0FFF27808191E0677019F0990F6A95BD
:10052600FCCF0895EFDF1EF09095892301C0892B3B
:1005360080830895EE27AA2389F08A2F68E1A8818F
:10054600BB2798E0FD917F2F7E27779508F4E62755
:10055600E795F6959A95B9F78A9599F721960895AC
:10056600552342F4503811F4E0FF04C03196691F58
:10057600791F6BF050E8572711F45F9373C05F3F04
:1005860031F0660F000C57956795752F08955F93A8
:1005960000200AF073C06CC050E8192E1522880F8F
:1005A600991F9527550F879550E8072E0522660F48
:1005B600771F7527550F67950895689401C0E894CD
:1005C6005F93F2DF703818F07F3F08F44BC056E1B6
:1005D600571BAAF4519558300EF4593030F0EFEF0E
:1005E600FFEF6FEF7FE777F91AC077275523B9F04A
:1005F600EE0FFF1F661F771F5A95D1F710C077279A
:10060600583028F0EF2FF62F672F5850F9CF552383
:1006160031F076956795F795E7955A95D1F70020CD
:100626000AF468D05F910895689401C0E894309701
:1006360060407040B1F0002426F0772312F4009455
:1006460059D0172E7EE1112032F07A95EE0FFF1F5A
:10065600661F111CF9CFEF2FF62F612D5F938ADFEE
:100666005F910895EE27FF27662777275F91089504
:10067600EFEFFFEF6FE77FEF5F910895EFEFFFEF8B
:100686006FE77FE75F9108955F9386DF703851F3D8
:10069600903841F301240894791F23F41CF30020B9
:1006A6003AF3ECCF3F934F93112433274427552732
:1006B60098E1330F441F551FEE1FFF1F661F30F4CE
:1006C6003A0F4B1F581FE11DF11D611D9A9589F7C1
:1006D6004F913F9166232AF0550FEE1FFF1F661FAD
:1006E60002C07395E3F23CDF5F910895F195E195C1
:1006F600F0400895F09560957095E195FF4F6F4F26
:100706007F4F08956F2F660F660B762F0895EE23A1
:10071600E1E009F0EE2708950A2EAA1BB9E003C00E
:1007260008F4A00DA695E795BA95D1F7089500248B
:10073600112490E1AA0FBB1F001C111C0E1A1F0AE0
:1007460018F40E0E1F1E01C0A1609A9599F7FD01BF
:10075600D001089512D0EBDF0EF4C8DF0895E894B7
:10076600B7FF04C0A095B09511966894F7FDBEDF5B
:10077600DEDFFD010EF4BADF0895E894F7FF02C04C
:10078600B5DF6894B7FF06C0A095B095119600F83E
:10079600039400FA08950590F491E02D0895A5912B
:1007A600B49108951A930A930895198108810895BA
:00000001FF
