:0A00000021C0AAC1FDCFFCCF6BC1E7
:10000A00FACFF9CFF8CFF7CFF6CFF5CFF4CFF3CFBA
:10001A00F2CFF1CFF0CFEFCFEECFEDCF0100BE0A96
:10002A00DC5E6A76F60EFE7E406CF4C001000500C6
:10003A0026000E00A80028000000F894EE27ECBB6A
:10004A00E5BF8DE0A2E0ED938A95E9F780E8A0E6A6
:10005A00ED938A95E9F7E6E3F0E0859195910097AB
:10006A0061F0A591B59105901590BF01F001059039
:10007A000D920197E1F7FB01F0CFE0E0E3BBE4BBAF
:10008A00E5BBEFEDEDBFC0E8EDC0EEEFE7BBE0E0AA
:10009A00E8BBE8E7E1BB80D1E0E4E9BFE5E0EEBD1B
:1000AA00EBE5EBBDEEE8EABDE0E4EBBFE2E0E5BF7D
:1000BA00089553FC21C070D1949AE0918A006FD1BF
:1000CA00E0918B00E03049F4A0918C00A13020F03F
:1000DA00A0918C00AA3008F005C05ED1939AE091F5
:1000EA008B005DD1E0918C00E03029F055D1959AD2
:1000FA00E0918C0054D10DC04FD1949A58D1939A63
:10010A0056D1959AE091B400E8BB88EE93E0019746
:10011A00F1F742D10895A6D250E030E03930D0F458
:10012A00A0E8A30F1C9120E0283090F4012F152796
:10013A0010FF08C0E8E1E527F0E0F595E795E068EB
:10014A005E2F01C05695E02FE6951E2F2F5FECCF4C
:10015A003F5FE4CF503011F4E1E001C0E0E089D222
:10016A0026960895F894A895E1B5E861E1BDEDE019
:10017A00E1BD789408951A9310E0E1E0E21509F4DC
:10018A007724222021F140D1ACEC84D1A4E482D19D
:10019A00B09BFECF39D1A5E57DD110E0183048F4E7
:1001AA00E72DA9E005D2E357E10FA08173D11F5FC4
:1001BA00F5CFAEEB6FD110E0193040F4E12FE058E3
:1001CA00EF9363D1AF91EC931F5FF6CF1DD121C09E
:1001DA001A9310E0E0918100F0E0E1D1EF7091F024
:1001EA00E0918000E295EF70E095E9D0E0951E0F6E
:1001FA001E5FE0918000F0E0D4D1E17009F01F5F4A
:10020A00119506C0E0918000E295EF70D8D01E0FDC
:10021A00E12F19910895E0E03E1634F4EAE0E09304
:10022A008C00309433940CC0D0D0309731F0CDD0BC
:10023A00E0938C00E4E63E1A03C0E0E0E0938C0011
:10024A00CCD0309711F0C9D001C0E0E0E0938B0028
:10025A00A32DB0E0A7FDBFEFEAE0F0E0CCD1E09338
:10026A008A00089512DF7EDFA8ECB0E0C3D0EBE588
:10027A00EDBDE8E8ECBDE0E85E2AC6D0ACEC0AD1F8
:10028A00AEE408D1A0E006D1A0E004D1AFEF02D1DC
:10029A00BBD0E0EFEA93ADE807D12E2E7894A8956B
:1002AA0051FE15C0A2D0E0955E22E52DE470F0E083
:1002BA007AD17E2E60DF2FDF4E2E442021F088DF98
:1002CA003E2EA9DF02C091D05E2AEDEF5E2257FCD6
:1002DA00F0DEE5CFFFCFAA93BA93EA93EFB7EA939A
:1002EA0057FC05C0E091B600EF5FE093B600A0911D
:1002FA00B600A53128F0E0E0E093B600E0E85E2A17
:10030A0057FE05C0E091B700EF5FE093B700A091F8
:10031A00B700A53028F0E0E0E093B700EFE75E22EF
:10032A00A0E0B0E084D1E03039F052FE03C0EBEF38
:10033A005E2202C0E4E05E2AE2E05E2AE0E0EDBD71
:10034A00ECBDE991EFBFE991B991A99118950A928B
:10035A001A92FA926A937A938A939A93AA93BA937D
:10036A00EA93FA93EFB7EA93A0E0B0E060D1E095A0
:10037A00A0E0B0E067D1A2E3B0E03CD0E991EFBFE2
:10038A00F991E991B991A991999189917991699193
:10039A00F990199009901895E0E0E2BB0895E855A4
:1003AA00E081E8BB88EE93E00197F1F70895E091C8
:1003BA00B500E8BB88EE93E00197F1F7EDCF1E2F69
:1003CA00E0918100E295E07F0895A32DB0E0A7FDBA
:1003DA00BFEFE4E6F0E00AD10895A32DB0E0A7FD4F
:1003EA00BFEFEAE0F0E002D10895E72DED5FA1E06A
:1003FA00CED00895109639F080ED97E00197F1F785
:10040A00A8951197C9F70895EE27C098B89A80EC75
:10041A0093E00197F1F7B89885E28A95F1F7B09BD6
:10042A0008958BEC8A95F1F7B09BE1E08CE093E0BC
:10043A000197F1F70895B89A85E08A95F1F7B89887
:10044A008DE18A95F1F78894B0990894E79585ED3E
:10045A008A95F1F70895E894B89A85E08A95F1F7B4
:10046A0070FDB89883E28A95F1F7B09903C070FFDE
:10047A0003C0089570FF089588EC8A95F1F7B8983B
:10048A008DE08A95F1F76894089568E0D4DF6A955B
:10049A00E9F708957A2F68E0EE27DDDF26F47795ED
:1004AA006A95D9F7E39508954F935F9311244427EA
:1004BA00BB27012C1124A8DFEE2301F1AF93A881F9
:1004CA00E9DFAF9151E0501598F4B5DFE7FD08C0B8
:1004DA00B2DFE7FD06C03FD0892319F4152E01C00B
:1004EA00AADF39D0892370E009F071E0B4DF1EC0B9
:1004FA00A2DFE7FF0BC09FDFE7FF05C0E42F5F9194
:10050A004F9121960895689436D0EFCF94DFE7FF94
:10051A0001C003C0501531F0152EE8942CD077276E
:10052A009ADF04C0689427D071E095DF539551345F
:10053A0054F281DFEE1FEE1FE1701896EC931897C4
:10054A0043951120D9F259E0EC911996EC9318973A
:10055A005A95D1F7AECFE52FEA956E2FE695E69537
:10056A00E695EA0FFF27808191E0677019F0990FED
:10057A006A95FCCF0895EFDF1EF09095892301C09C
:10058A00892B80830895F195E195F0400895EE2333
:10059A000E2EEA2F19F0EE0F0A94E9F70895F59551
:1005AA00E795F595E795F595E795F595E795089516
:1005BA000A2EAA1BB9E003C008F4A00DA695E79578
:1005CA00BA95D1F708950024112490E1AA0FBB1F10
:1005DA00001C111C0E1A1F0A18F40E0E1F1E01C051
:1005EA00A1609A9599F7FD01D001089512D0EBDF29
:1005FA000EF4C9DF0895E894B7FF04C0A095B0953A
:10060A0011966894F7FDBFDFDEDFFD010EF4BBDF54
:10061A000895E894F7FF02C0B6DF6894B7FF06C0F2
:10062A00A095B095119600F8039400FA0895E199FF
:10063A00FECFFF93FFB7F894AEBBE09AEDB3FFBFCE
:10064A00FF910895E19B02C0A895FCCF9FB7F8944B
:10065A00AEBBE09A8DB3E81719F0EDBBE29AE19AC6
:10066A009FBF08955A934A933A932A931A930A93E7
:10067A0008955D814C813B812A8119810881089501
:00000001FF
